{
  "_format": "hh-sol-artifact-1",
  "contractName": "MathMock",
  "sourceName": "contracts/test/MathMock.sol",
  "abi": [
    {
      "inputs": [
        {
          "internalType": "int256",
          "name": "a",
          "type": "int256"
        }
      ],
      "name": "abs",
      "outputs": [
        {
          "internalType": "uint256",
          "name": "",
          "type": "uint256"
        }
      ],
      "stateMutability": "pure",
      "type": "function"
    }
  ],
  "bytecode": "0x608060405234801561001057600080fd5b5060b28061001f6000396000f3fe6080604052348015600f57600080fd5b506004361060285760003560e01c80631b5ac4b514602d575b600080fd5b604760048036036020811015604157600080fd5b50356059565b60408051918252519081900360200190f35b60006062826068565b92915050565b6000808213607857816000036062565b509056fea26469706673582212200354ddfbcc867e7ed72d4ce04502fd0df59ea5cc0cafcdcb64a418a9045d5d0864736f6c63430007010033",
  "linkReferences": {},
  "deployedLinkReferences": {}
}