{
  "_format": "hh-sol-artifact-1",
  "contractName": "BalancerErrorsMock",
  "sourceName": "contracts/test/BalancerErrorsMock.sol",
  "abi": [
    {
      "inputs": [
        {
          "internalType": "uint256",
          "name": "code",
          "type": "uint256"
        }
      ],
      "name": "fail",
      "outputs": [],
      "stateMutability": "pure",
      "type": "function"
    },
    {
      "inputs": [
        {
          "internalType": "uint256",
          "name": "code",
          "type": "uint256"
        },
        {
          "internalType": "bytes3",
          "name": "prefix",
          "type": "bytes3"
        }
      ],
      "name": "failWithPrefix",
      "outputs": [],
      "stateMutability": "pure",
      "type": "function"
    }
  ],
  "bytecode": "0x608060405234801561001057600080fd5b50610190806100206000396000f3fe608060405234801561001057600080fd5b50600436106100365760003560e01c8063132e4f3c1461003b5780639aac0d2d1461005a575b600080fd5b6100586004803603602081101561005157600080fd5b503561009f565b005b6100586004803603604081101561007057600080fd5b50803590602001357fffffff0000000000000000000000000000000000000000000000000000000000166100ab565b6100a8816100b9565b50565b6100b582826100df565b5050565b6100a8817f42414c00000000000000000000000000000000000000000000000000000000005b7f08c379a000000000000000000000000000000000000000000000000000000000600090815260206004526007602452600a808404818106603090810160081b958390069590950190829004918206850160101b01602363ffffff0060e086901c160160181b0190930160c81b60445260e882901c90606490fdfea2646970667358221220c82be0d17f438cb6a342886d5bc84eecc873c4c5f8bd5b26292a5f358ebdd6ce64736f6c63430007010033",
  "linkReferences": {},
  "deployedLinkReferences": {}
}