{
  "_format": "hh-sol-artifact-1",
  "contractName": "ERC1271Mock",
  "sourceName": "contracts/test/ERC1271Mock.sol",
  "abi": [
    {
      "inputs": [
        {
          "internalType": "bytes32",
          "name": "digest",
          "type": "bytes32"
        },
        {
          "internalType": "bytes",
          "name": "signature",
          "type": "bytes"
        }
      ],
      "name": "getKey",
      "outputs": [
        {
          "internalType": "bytes32",
          "name": "",
          "type": "bytes32"
        }
      ],
      "stateMutability": "pure",
      "type": "function"
    },
    {
      "inputs": [
        {
          "internalType": "bytes32",
          "name": "digest",
          "type": "bytes32"
        },
        {
          "internalType": "bytes",
          "name": "signature",
          "type": "bytes"
        }
      ],
      "name": "isValidSignature",
      "outputs": [
        {
          "internalType": "bytes4",
          "name": "",
          "type": "bytes4"
        }
      ],
      "stateMutability": "view",
      "type": "function"
    },
    {
      "inputs": [
        {
          "internalType": "bytes32",
          "name": "key",
          "type": "bytes32"
        }
      ],
      "name": "setApproved",
      "outputs": [],
      "stateMutability": "nonpayable",
      "type": "function"
    },
    {
      "inputs": [
        {
          "internalType": "bool",
          "name": "newRevert",
          "type": "bool"
        }
      ],
      "name": "setRevert",
      "outputs": [],
      "stateMutability": "nonpayable",
      "type": "function"
    }
  ],
  "bytecode": "0x608060405234801561001057600080fd5b50610438806100206000396000f3fe608060405234801561001057600080fd5b506004361061004c5760003560e01c80631626ba7e1461005157806323d6d879146101335780638109f510146101525780638fb5f17114610211575b600080fd5b6100fe6004803603604081101561006757600080fd5b8135919081019060408101602082013564010000000081111561008957600080fd5b82018360208201111561009b57600080fd5b803590602001918460018302840111640100000000831117156100bd57600080fd5b91908080601f016020809104026020016040519081016040528093929190818152602001838380828437600092019190915250929550610230945050505050565b604080517fffffffff000000000000000000000000000000000000000000000000000000009092168252519081900360200190f35b6101506004803603602081101561014957600080fd5b50356102fa565b005b6101ff6004803603604081101561016857600080fd5b8135919081019060408101602082013564010000000081111561018a57600080fd5b82018360208201111561019c57600080fd5b803590602001918460018302840111640100000000831117156101be57600080fd5b91908080601f016020809104026020016040519081016040528093929190818152602001838380828437600092019190915250929550610333945050505050565b60408051918252519081900360200190f35b6101506004803603602081101561022757600080fd5b503515156103d1565b60015460009060ff16156102a557604080517f08c379a000000000000000000000000000000000000000000000000000000000815260206004820152601360248201527f455243313237315f4d4f434b5f52455645525400000000000000000000000000604482015290519081900360640190fd5b6000806102b28585610333565b815260208101919091526040016000205460ff166102d15760006102f3565b7f1626ba7e000000000000000000000000000000000000000000000000000000005b9392505050565b600090815260208190526040902080547fffffffffffffffffffffffffffffffffffffffffffffffffffffffffffffff00166001179055565b600082826040516020018083815260200182805190602001908083835b6020831061038d57805182527fffffffffffffffffffffffffffffffffffffffffffffffffffffffffffffffe09092019160209182019101610350565b6001836020036101000a0380198251168184511680821785525050505050509050019250505060405160208183030381529060405280519060200120905092915050565b600180547fffffffffffffffffffffffffffffffffffffffffffffffffffffffffffffff001691151591909117905556fea26469706673582212207094de17cb1c35744e116bfbce0498c5dd34c2ac622937a5d7e1a60cc083c3e964736f6c63430007010033",
  "linkReferences": {},
  "deployedLinkReferences": {}
}