{
  "_format": "hh-sol-artifact-1",
  "contractName": "EnumerableIERC20ToUint256MapMock",
  "sourceName": "contracts/test/EnumerableMapMock.sol",
  "abi": [
    {
      "anonymous": false,
      "inputs": [
        {
          "indexed": false,
          "internalType": "bool",
          "name": "result",
          "type": "bool"
        }
      ],
      "name": "OperationResult",
      "type": "event"
    },
    {
      "inputs": [
        {
          "internalType": "uint256",
          "name": "index",
          "type": "uint256"
        }
      ],
      "name": "at",
      "outputs": [
        {
          "internalType": "contract IERC20",
          "name": "key",
          "type": "address"
        },
        {
          "internalType": "uint256",
          "name": "value",
          "type": "uint256"
        }
      ],
      "stateMutability": "view",
      "type": "function"
    },
    {
      "inputs": [
        {
          "internalType": "contract IERC20",
          "name": "key",
          "type": "address"
        }
      ],
      "name": "contains",
      "outputs": [
        {
          "internalType": "bool",
          "name": "",
          "type": "bool"
        }
      ],
      "stateMutability": "view",
      "type": "function"
    },
    {
      "inputs": [
        {
          "internalType": "contract IERC20",
          "name": "key",
          "type": "address"
        },
        {
          "internalType": "uint256",
          "name": "errorCode",
          "type": "uint256"
        }
      ],
      "name": "get",
      "outputs": [
        {
          "internalType": "uint256",
          "name": "",
          "type": "uint256"
        }
      ],
      "stateMutability": "view",
      "type": "function"
    },
    {
      "inputs": [
        {
          "internalType": "contract IERC20",
          "name": "key",
          "type": "address"
        },
        {
          "internalType": "uint256",
          "name": "errorCode",
          "type": "uint256"
        }
      ],
      "name": "indexOf",
      "outputs": [
        {
          "internalType": "uint256",
          "name": "",
          "type": "uint256"
        }
      ],
      "stateMutability": "view",
      "type": "function"
    },
    {
      "inputs": [],
      "name": "length",
      "outputs": [
        {
          "internalType": "uint256",
          "name": "",
          "type": "uint256"
        }
      ],
      "stateMutability": "view",
      "type": "function"
    },
    {
      "inputs": [
        {
          "internalType": "contract IERC20",
          "name": "key",
          "type": "address"
        }
      ],
      "name": "remove",
      "outputs": [],
      "stateMutability": "nonpayable",
      "type": "function"
    },
    {
      "inputs": [
        {
          "internalType": "contract IERC20",
          "name": "key",
          "type": "address"
        },
        {
          "internalType": "uint256",
          "name": "value",
          "type": "uint256"
        }
      ],
      "name": "set",
      "outputs": [],
      "stateMutability": "nonpayable",
      "type": "function"
    },
    {
      "inputs": [
        {
          "internalType": "uint256",
          "name": "index",
          "type": "uint256"
        }
      ],
      "name": "unchecked_at",
      "outputs": [
        {
          "internalType": "contract IERC20",
          "name": "key",
          "type": "address"
        },
        {
          "internalType": "uint256",
          "name": "value",
          "type": "uint256"
        }
      ],
      "stateMutability": "view",
      "type": "function"
    },
    {
      "inputs": [
        {
          "internalType": "contract IERC20",
          "name": "key",
          "type": "address"
        }
      ],
      "name": "unchecked_indexOf",
      "outputs": [
        {
          "internalType": "uint256",
          "name": "",
          "type": "uint256"
        }
      ],
      "stateMutability": "view",
      "type": "function"
    },
    {
      "inputs": [
        {
          "internalType": "uint256",
          "name": "index",
          "type": "uint256"
        },
        {
          "internalType": "uint256",
          "name": "value",
          "type": "uint256"
        }
      ],
      "name": "unchecked_setAt",
      "outputs": [],
      "stateMutability": "nonpayable",
      "type": "function"
    },
    {
      "inputs": [
        {
          "internalType": "uint256",
          "name": "index",
          "type": "uint256"
        }
      ],
      "name": "unchecked_valueAt",
      "outputs": [
        {
          "internalType": "uint256",
          "name": "value",
          "type": "uint256"
        }
      ],
      "stateMutability": "view",
      "type": "function"
    }
  ],
  "bytecode": "0x608060405234801561001057600080fd5b506108bb806100206000396000f3fe608060405234801561001057600080fd5b50600436106100c95760003560e01c8063adcd29d911610081578063cb52cb1a1161005b578063cb52cb1a14610273578063e0886f9014610296578063e37b1903146102b3576100c9565b8063adcd29d9146101d0578063b464631b146101ed578063c65d268314610226576100c9565b806329092d0e116100b257806329092d0e1461011b5780633825d828146101505780635dbe47e814610189576100c9565b80630127190b146100ce5780631f7b6d3214610113575b600080fd5b610101600480360360208110156100e457600080fd5b503573ffffffffffffffffffffffffffffffffffffffff166102ec565b60408051918252519081900360200190f35b6101016102fe565b61014e6004803603602081101561013157600080fd5b503573ffffffffffffffffffffffffffffffffffffffff1661030f565b005b61014e6004803603604081101561016657600080fd5b5073ffffffffffffffffffffffffffffffffffffffff8135169060200135610358565b6101bc6004803603602081101561019f57600080fd5b503573ffffffffffffffffffffffffffffffffffffffff166103a3565b604080519115158252519081900360200190f35b610101600480360360208110156101e657600080fd5b50356103af565b6101016004803603604081101561020357600080fd5b5073ffffffffffffffffffffffffffffffffffffffff81351690602001356103bb565b6102436004803603602081101561023c57600080fd5b50356103cf565b6040805173ffffffffffffffffffffffffffffffffffffffff909316835260208301919091528051918290030190f35b61014e6004803603604081101561028957600080fd5b50803590602001356103e5565b610243600480360360208110156102ac57600080fd5b50356103f5565b610101600480360360408110156102c957600080fd5b5073ffffffffffffffffffffffffffffffffffffffff8135169060200135610402565b60006102f8818361040f565b92915050565b600061030a600061043b565b905090565b600061031b818361043f565b60408051821515815290519192507fed9840e0775590557ad736875d96c95cf1458b766335f74339951a32c82a9e33919081900360200190a15050565b6000610365818484610590565b60408051821515815290519192507fed9840e0775590557ad736875d96c95cf1458b766335f74339951a32c82a9e33919081900360200190a1505050565b60006102f8818361068f565b60006102f881836106bd565b60006103c88184846106d3565b9392505050565b6000806103dc818461071d565b91509150915091565b6103f16000838361074e565b5050565b6000806103dc8184610766565b60006103c881848461078f565b73ffffffffffffffffffffffffffffffffffffffff166000908152600291909101602052604090205490565b5490565b73ffffffffffffffffffffffffffffffffffffffff8116600090815260028301602052604081205480156105865783547fffffffffffffffffffffffffffffffffffffffffffffffffffffffffffffffff8083019101808214610517576000818152600180880160209081526040808420868552818520815481547fffffffffffffffffffffffff00000000000000000000000000000000000000001673ffffffffffffffffffffffffffffffffffffffff9182161782558286015491860191909155905416845260028a0190915290912090830190555b600081815260018088016020908152604080842080547fffffffffffffffffffffffff0000000000000000000000000000000000000000168155830184905593895573ffffffffffffffffffffffffffffffffffffffff881683526002890190529181205592506102f8915050565b60009150506102f8565b73ffffffffffffffffffffffffffffffffffffffff821660009081526002840160205260408120548061064f575050825460408051808201825273ffffffffffffffffffffffffffffffffffffffff858116808352602080840187815260008781526001808c018452878220965187547fffffffffffffffffffffffff000000000000000000000000000000000000000016961695909517865590519484019490945594820180895590835260028801909452919020919091556103c8565b7fffffffffffffffffffffffffffffffffffffffffffffffffffffffffffffffff0160009081526001808601602052604082200183905590509392505050565b73ffffffffffffffffffffffffffffffffffffffff1660009081526002919091016020526040902054151590565b6000908152600191820160205260409020015490565b73ffffffffffffffffffffffffffffffffffffffff82166000908152600284016020526040812054610707811515846107d4565b61071485600183036106bd565b95945050505050565b6000908152600191820160205260409020805491015473ffffffffffffffffffffffffffffffffffffffff90911691565b60009182526001928301602052604090912090910155565b60008061077a8385600001541160646107d4565b610784848461071d565b915091509250929050565b60008061079c858561040f565b90506107aa811515846107d4565b7fffffffffffffffffffffffffffffffffffffffffffffffffffffffffffffffff01949350505050565b816103f1576103f181610807817f42414c000000000000000000000000000000000000000000000000000000000061080a565b50565b7f08c379a000000000000000000000000000000000000000000000000000000000600090815260206004526007602452600a808404818106603090810160081b958390069590950190829004918206850160101b01602363ffffff0060e086901c160160181b0190930160c81b60445260e882901c90606490fdfea2646970667358221220bfebe204fb64b819f9bd41838028abe6ed2703303b003109d34d6f34867b436a64736f6c63430007010033",
  "linkReferences": {},
  "deployedLinkReferences": {}
}