{
  "_format": "hh-sol-artifact-1",
  "contractName": "LogExpMathMock",
  "sourceName": "contracts/test/LogExpMathMock.sol",
  "abi": [
    {
      "inputs": [
        {
          "internalType": "uint256",
          "name": "x",
          "type": "uint256"
        },
        {
          "internalType": "uint256",
          "name": "y",
          "type": "uint256"
        }
      ],
      "name": "pow",
      "outputs": [
        {
          "internalType": "uint256",
          "name": "",
          "type": "uint256"
        }
      ],
      "stateMutability": "pure",
      "type": "function"
    }
  ],
  "bytecode": "0x608060405234801561001057600080fd5b50610c33806100206000396000f3fe608060405234801561001057600080fd5b506004361061002b5760003560e01c80632e4c697f14610030575b600080fd5b6100536004803603604081101561004657600080fd5b5080359060200135610065565b60408051918252519081900360200190f35b6000610071838361007a565b90505b92915050565b6000816100905750670de0b6b3a7640000610074565b8261009d57506000610074565b6100ad60ff84901c15600661019a565b826100d3770bce5086492111aea88f4bb1ca6bcf584181ea8059f765328410600761019a565b826000670c7d713b49da0000831380156100f45750670f43fc2c04ee000083125b1561012b576000610104846101ac565b9050670de0b6b3a764000080820784020583670de0b6b3a764000083050201915050610139565b81610135846102e5565b0290505b670de0b6b3a764000090056101877ffffffffffffffffffffffffffffffffffffffffffffffffdc702bd3a30fc00008212801590610180575068070c1cc73b00c800008213155b600861019a565b61019081610685565b9695505050505050565b816101a8576101a881610b55565b5050565b670de0b6b3a7640000026000806ec097ce7bc90715b34b9f1000000000808401907fffffffffffffffffffffffffffffffffff3f68318436f8ea4cb460f000000000850102816101f857fe5b05905060006ec097ce7bc90715b34b9f100000000082800205905081806ec097ce7bc90715b34b9f100000000081840205915060038205016ec097ce7bc90715b34b9f100000000082840205915060058205016ec097ce7bc90715b34b9f100000000082840205915060078205016ec097ce7bc90715b34b9f100000000082840205915060098205016ec097ce7bc90715b34b9f1000000000828402059150600b8205016ec097ce7bc90715b34b9f1000000000828402059150600d8205016ec097ce7bc90715b34b9f1000000000828402059150600f820581019050806002029450505050505b919050565b6000670de0b6b3a764000082121561032257610318826ec097ce7bc90715b34b9f10000000008161031257fe5b056102e5565b60000390506102e0565b60007e1600ef3172e58d2e933ec884fde10064c63b5372d805e203c0000000000000831261037357770195e54c5dd42177f53a27172fa9ec630262827000000000830592506806f05b59d3b2000000015b73011798004d755d3c8bc8e03204cf44619e00000083126103ab576b1425982cf597cd205cef7380830592506803782dace9d9000000015b606492830292026e01855144814a7ff805980ff008400083126103f3576e01855144814a7ff805980ff008400068056bc75e2d63100000840205925068ad78ebc5ac62000000015b6b02df0ab5a80a22c61ab5a700831261042e576b02df0ab5a80a22c61ab5a70068056bc75e2d6310000084020592506856bc75e2d631000000015b693f1fce3da636ea5cf850831261046557693f1fce3da636ea5cf85068056bc75e2d631000008402059250682b5e3af16b18800000015b690127fa27722cc06cc5e2831261049c57690127fa27722cc06cc5e268056bc75e2d6310000084020592506815af1d78b58c400000015b68280e60114edb805d0383126104d15768280e60114edb805d0368056bc75e2d631000008402059250680ad78ebc5ac6200000015b680ebc5fb4174612111083126104fc57680ebc5fb4174612111068056bc75e2d631000009384020592015b6808f00f760a4b2db55d8312610531576808f00f760a4b2db55d68056bc75e2d6310000084020592506802b5e3af16b1880000015b6806f5f17757889379378312610566576806f5f177578893793768056bc75e2d63100000840205925068015af1d78b58c40000015b6806248f33704b286603831261059a576806248f33704b28660368056bc75e2d63100000840205925067ad78ebc5ac620000015b6805c548670b9510e7ac83126105ce576805c548670b9510e7ac68056bc75e2d6310000084020592506756bc75e2d6310000015b600068056bc75e2d63100000840168056bc75e2d6310000080860302816105f157fe5b059050600068056bc75e2d63100000828002059050818068056bc75e2d63100000818402059150600382050168056bc75e2d63100000828402059150600582050168056bc75e2d63100000828402059150600782050168056bc75e2d63100000828402059150600982050168056bc75e2d63100000828402059150600b820501600202606485820105979650505050505050565b60006106ca7ffffffffffffffffffffffffffffffffffffffffffffffffdc702bd3a30fc000083121580156106c3575068070c1cc73b00c800008313155b600961019a565b60008212156106fe576106df82600003610685565b6ec097ce7bc90715b34b9f1000000000816106f657fe5b0590506102e0565b60006806f05b59d3b2000000831261075457507ffffffffffffffffffffffffffffffffffffffffffffffff90fa4a62c4e00000090910190770195e54c5dd42177f53a27172fa9ec6302628270000000006107a0565b6803782dace9d9000000831261079c57507ffffffffffffffffffffffffffffffffffffffffffffffffc87d2531627000000909101906b1425982cf597cd205cef73806107a0565b5060015b6064929092029168056bc75e2d6310000068ad78ebc5ac620000008412610806577fffffffffffffffffffffffffffffffffffffffffffffff5287143a539e0000009093019268056bc75e2d631000006e01855144814a7ff805980ff008400082020590505b6856bc75e2d6310000008412610858577fffffffffffffffffffffffffffffffffffffffffffffffa9438a1d29cf0000009093019268056bc75e2d631000006b02df0ab5a80a22c61ab5a70082020590505b682b5e3af16b1880000084126108a8577fffffffffffffffffffffffffffffffffffffffffffffffd4a1c50e94e78000009093019268056bc75e2d63100000693f1fce3da636ea5cf85082020590505b6815af1d78b58c40000084126108f8577fffffffffffffffffffffffffffffffffffffffffffffffea50e2874a73c000009093019268056bc75e2d63100000690127fa27722cc06cc5e282020590505b680ad78ebc5ac62000008412610947577ffffffffffffffffffffffffffffffffffffffffffffffff5287143a539e000009093019268056bc75e2d6310000068280e60114edb805d0382020590505b68056bc75e2d631000008412610996577ffffffffffffffffffffffffffffffffffffffffffffffffa9438a1d29cf000009093019268056bc75e2d63100000680ebc5fb4174612111082020590505b6802b5e3af16b188000084126109e5577ffffffffffffffffffffffffffffffffffffffffffffffffd4a1c50e94e7800009093019268056bc75e2d631000006808f00f760a4b2db55d82020590505b68015af1d78b58c400008412610a34577ffffffffffffffffffffffffffffffffffffffffffffffffea50e2874a73c00009093019268056bc75e2d631000006806f5f177578893793782020590505b68056bc75e2d631000008481019085906002908280020505918201919050600368056bc75e2d631000008783020505918201919050600468056bc75e2d631000008783020505918201919050600568056bc75e2d631000008783020505918201919050600668056bc75e2d631000008783020505918201919050600768056bc75e2d631000008783020505918201919050600868056bc75e2d631000008783020505918201919050600968056bc75e2d631000008783020505918201919050600a68056bc75e2d631000008783020505918201919050600b68056bc75e2d631000008783020505918201919050600c68056bc75e2d631000008783020505918201919050606468056bc75e2d63100000848402058502059695505050505050565b610b7f817f42414c0000000000000000000000000000000000000000000000000000000000610b82565b50565b7f08c379a000000000000000000000000000000000000000000000000000000000600090815260206004526007602452600a808404818106603090810160081b958390069590950190829004918206850160101b01602363ffffff0060e086901c160160181b0190930160c81b60445260e882901c90606490fdfea26469706673582212204c85179724e1fd8be87934d36347e8e48bfde12026a145c4524e7ab7330e504e64736f6c63430007010033",
  "linkReferences": {},
  "deployedLinkReferences": {}
}