{
  "_format": "hh-sol-artifact-1",
  "contractName": "MockSplitCodeFactory",
  "sourceName": "contracts/test/MockSplitCodeFactory.sol",
  "abi": [
    {
      "inputs": [],
      "stateMutability": "nonpayable",
      "type": "constructor"
    },
    {
      "anonymous": false,
      "inputs": [
        {
          "indexed": false,
          "internalType": "address",
          "name": "destination",
          "type": "address"
        }
      ],
      "name": "ContractCreated",
      "type": "event"
    },
    {
      "inputs": [
        {
          "internalType": "bytes32",
          "name": "id",
          "type": "bytes32"
        }
      ],
      "name": "create",
      "outputs": [
        {
          "internalType": "address",
          "name": "",
          "type": "address"
        }
      ],
      "stateMutability": "nonpayable",
      "type": "function"
    },
    {
      "inputs": [],
      "name": "getCreationCode",
      "outputs": [
        {
          "internalType": "bytes",
          "name": "",
          "type": "bytes"
        }
      ],
      "stateMutability": "view",
      "type": "function"
    },
    {
      "inputs": [],
      "name": "getCreationCodeContracts",
      "outputs": [
        {
          "internalType": "address",
          "name": "contractA",
          "type": "address"
        },
        {
          "internalType": "address",
          "name": "contractB",
          "type": "address"
        }
      ],
      "stateMutability": "view",
      "type": "function"
    }
  ],
  "bytecode": "0x61010060405234801561001157600080fd5b5060405161002160208201610189565b601f1982820381018352601f90910116604052805160006002820460a081905280830360e081905281855290915083610064816100b1602090811b61023c17901c565b60601b6001600160601b0319166080528285018051838252610090826100b1602090811b61023c17901c565b60601b6001600160601b03191660c052949091529290925250610196915050565b80517f602038038060206000396000f3fefefefefefefefefefefefefefefefefefefe808352600091602081018484f090845291506100fd6001600160a01b03831615156101ac610103565b50919050565b816101115761011181610115565b5050565b610125816210905360ea1b610128565b50565b62461bcd60e51b600090815260206004526007602452600a808404818106603090810160081b958390069590950190829004918206850160101b01602363ffffff0060e086901c160160181b0190930160c81b60445260e882901c90606490fd5b6101078061070183390190565b60805160601c60a05160c05160601c60e0516105266101db600039806102a352508061019b528061031f5250806102c452508061017a52806102fb52506105266000f3fe608060405234801561001057600080fd5b50600436106100405760003560e01c8062c194db14610045578063174481fa146100c25780637368a8ce14610113575b600080fd5b61004d610159565b6040805160208082528351818301528351919283929083019185019080838360005b8381101561008757818101518382015260200161006f565b50505050905090810190601f1680156100b45780820380516001836020036101000a031916815260200191505b509250505060405180910390f35b6100ca610178565b604051808373ffffffffffffffffffffffffffffffffffffffff1681526020018273ffffffffffffffffffffffffffffffffffffffff1681526020019250505060405180910390f35b6101306004803603602081101561012957600080fd5b50356101be565b6040805173ffffffffffffffffffffffffffffffffffffffff9092168252519081900360200190f35b60606101736040518060200160405280600081525061029b565b905090565b7f00000000000000000000000000000000000000000000000000000000000000007f00000000000000000000000000000000000000000000000000000000000000009091565b6000806101e98360405160200180828152602001915050604051602081830303815290604052610374565b6040805173ffffffffffffffffffffffffffffffffffffffff8316815290519192507fcf78cf0d6f3d8371e1075c69c492ab4ec5d8cf23a1a239b6a51a1d00be7ca312919081900360200190a192915050565b80517f602038038060206000396000f3fefefefefefefefefefefefefefefefefefefe808352600091602081018484f0908452915061029573ffffffffffffffffffffffffffffffffffffffff831615156101ac6103bc565b50919050565b8051604080517f00000000000000000000000000000000000000000000000000000000000000007f0000000000000000000000000000000000000000000000000000000000000000818101858101848101602090810190965280855293957f00000000000000000000000000000000000000000000000000000000000000009592947f000000000000000000000000000000000000000000000000000000000000000094938801866000828a3c846000888301883c50602089810190898501016103668183866103ce565b505050505050505050919050565b600060606103818361029b565b905060008151602083016000f0905073ffffffffffffffffffffffffffffffffffffffff81166103b5573d6000803e3d6000fd5b9392505050565b816103ca576103ca81610448565b5050565b5b6020811061040c5781518352602092830192909101907fffffffffffffffffffffffffffffffffffffffffffffffffffffffffffffffe0016103cf565b905182516020929092036101000a7fffffffffffffffffffffffffffffffffffffffffffffffffffffffffffffffff0180199091169116179052565b610472817f42414c0000000000000000000000000000000000000000000000000000000000610475565b50565b7f08c379a000000000000000000000000000000000000000000000000000000000600090815260206004526007602452600a808404818106603090810160081b958390069590950190829004918206850160101b01602363ffffff0060e086901c160160181b0190930160c81b60445260e882901c90606490fdfea2646970667358221220d80f144a65adef83b21d0b6aeaa89223c9e536f6d309c8e99261cb546930637c64736f6c63430007010033608060405234801561001057600080fd5b506040516101073803806101078339818101604052602081101561003357600080fd5b505180610075576040805162461bcd60e51b815260206004820152600b60248201526a1393d397d6915493d7d25160aa1b604482015290519081900360640190fd5b6000556081806100866000396000f3fe6080604052348015600f57600080fd5b506004361060285760003560e01c80635d1ca63114602d575b600080fd5b60336045565b60408051918252519081900360200190f35b6000549056fea264697066735822122070ca3c2aa8185e6f81f4b9d58400bc6b1ba35443a073dea7ec110c3f24a3e4e564736f6c63430007010033",
  "linkReferences": {},
  "deployedLinkReferences": {}
}