{
  "_format": "hh-sol-artifact-1",
  "contractName": "SignaturesValidatorMock",
  "sourceName": "contracts/test/SignaturesValidatorMock.sol",
  "abi": [
    {
      "inputs": [],
      "stateMutability": "nonpayable",
      "type": "constructor"
    },
    {
      "anonymous": false,
      "inputs": [],
      "name": "Authenticated",
      "type": "event"
    },
    {
      "inputs": [],
      "name": "MOCK_AUTHENTICATE_TYPEHASH",
      "outputs": [
        {
          "internalType": "bytes32",
          "name": "",
          "type": "bytes32"
        }
      ],
      "stateMutability": "view",
      "type": "function"
    },
    {
      "inputs": [
        {
          "internalType": "address",
          "name": "user",
          "type": "address"
        },
        {
          "internalType": "uint256",
          "name": "amount",
          "type": "uint256"
        },
        {
          "internalType": "bytes",
          "name": "signature",
          "type": "bytes"
        }
      ],
      "name": "authenticatedCall",
      "outputs": [],
      "stateMutability": "nonpayable",
      "type": "function"
    },
    {
      "inputs": [
        {
          "internalType": "address",
          "name": "user",
          "type": "address"
        },
        {
          "internalType": "uint256",
          "name": "amount",
          "type": "uint256"
        },
        {
          "internalType": "bytes",
          "name": "signature",
          "type": "bytes"
        },
        {
          "internalType": "uint256",
          "name": "deadline",
          "type": "uint256"
        }
      ],
      "name": "authenticatedCallWithDeadline",
      "outputs": [],
      "stateMutability": "nonpayable",
      "type": "function"
    },
    {
      "inputs": [
        {
          "internalType": "uint256",
          "name": "amount",
          "type": "uint256"
        },
        {
          "internalType": "uint256",
          "name": "nonce",
          "type": "uint256"
        }
      ],
      "name": "getDigest",
      "outputs": [
        {
          "internalType": "bytes32",
          "name": "",
          "type": "bytes32"
        }
      ],
      "stateMutability": "view",
      "type": "function"
    },
    {
      "inputs": [],
      "name": "getDomainSeparator",
      "outputs": [
        {
          "internalType": "bytes32",
          "name": "",
          "type": "bytes32"
        }
      ],
      "stateMutability": "view",
      "type": "function"
    },
    {
      "inputs": [
        {
          "internalType": "address",
          "name": "account",
          "type": "address"
        }
      ],
      "name": "getNextNonce",
      "outputs": [
        {
          "internalType": "uint256",
          "name": "",
          "type": "uint256"
        }
      ],
      "stateMutability": "view",
      "type": "function"
    },
    {
      "inputs": [
        {
          "internalType": "uint256",
          "name": "amount",
          "type": "uint256"
        },
        {
          "internalType": "uint256",
          "name": "nonce",
          "type": "uint256"
        }
      ],
      "name": "getStructHash",
      "outputs": [
        {
          "internalType": "bytes32",
          "name": "",
          "type": "bytes32"
        }
      ],
      "stateMutability": "pure",
      "type": "function"
    },
    {
      "inputs": [
        {
          "internalType": "address",
          "name": "user",
          "type": "address"
        }
      ],
      "name": "increaseNonce",
      "outputs": [],
      "stateMutability": "nonpayable",
      "type": "function"
    }
  ],
  "bytecode": "0x60e060405234801561001057600080fd5b50604080518082018252601d81527f454f41205369676e6174757265732056616c696461746f72204d6f636b0000006020808301918252835180850190945260018452603160f81b908401908152915190206080529051902060a0527f8b73c3c69bb8fe3d512ecc4cf759cc79239f7b179b0ffacaa9a75d522b39400f60c05260805160a05160c0516109bd6100bc600039806105805250806105c25250806105a152506109bd6000f3fe608060405234801561001057600080fd5b50600436106100885760003560e01c806390193b7c1161005b57806390193b7c146101c75780639a874583146101fa578063d8574486146102c4578063ed24911d146102e757610088565b80630d347d5d1461008d578063251a104d146100a75780636917a1ff146100ca5780638247a97c14610194575b600080fd5b6100956102ef565b60408051918252519081900360200190f35b610095600480360360408110156100bd57600080fd5b5080359060200135610313565b610192600480360360608110156100e057600080fd5b73ffffffffffffffffffffffffffffffffffffffff8235169160208101359181019060608101604082013564010000000081111561011d57600080fd5b82018360208201111561012f57600080fd5b8035906020019184600183028401116401000000008311171561015157600080fd5b91908080601f016020809104026020016040519081016040528093929190818152602001838380828437600092019190915250929550610368945050505050565b005b610192600480360360208110156101aa57600080fd5b503573ffffffffffffffffffffffffffffffffffffffff166103b5565b610095600480360360208110156101dd57600080fd5b503573ffffffffffffffffffffffffffffffffffffffff166103e2565b6101926004803603608081101561021057600080fd5b73ffffffffffffffffffffffffffffffffffffffff8235169160208101359181019060608101604082013564010000000081111561024d57600080fd5b82018360208201111561025f57600080fd5b8035906020019184600183028401116401000000008311171561028157600080fd5b91908080601f016020809104026020016040519081016040528093929190818152602001838380828437600092019190915250929550509135925061040a915050565b610095600480360360408110156102da57600080fd5b5080359060200135610454565b61009561046f565b7f1a2773cb2c3f9af30f9fb5190fc6bc4d770020e828d3ab1d3b40ba84e97a6a4981565b604080517f1a2773cb2c3f9af30f9fb5190fc6bc4d770020e828d3ab1d3b40ba84e97a6a4960208083019190915281830194909452606080820193909352815180820390930183526080019052805191012090565b6103878361037e84610379876103e2565b610313565b836101f861047e565b6040517fa707c3b3e81b3f5c0275a5cb4003a187a45758f8d5f8f503dd28792e34de5ea090600090a1505050565b73ffffffffffffffffffffffffffffffffffffffff16600090815260208190526040902080546001019055565b73ffffffffffffffffffffffffffffffffffffffff1660009081526020819052604090205490565b6104258461041b85610379886103e2565b84846101f86104b1565b6040517fa707c3b3e81b3f5c0275a5cb4003a187a45758f8d5f8f503dd28792e34de5ea090600090a150505050565b60006104686104638484610313565b610515565b9392505050565b600061047961057c565b905090565b6104ab8484847fffffffffffffffffffffffffffffffffffffffffffffffffffffffffffffffff856104b1565b50505050565b60006104bc85610515565b90506104d26104cc878387610647565b836107b1565b6104e1428410156101b86107b1565b50505073ffffffffffffffffffffffffffffffffffffffff9092166000908152602081905260409020805460010190555050565b600061051f61057c565b8260405160200180807f190100000000000000000000000000000000000000000000000000000000000081525060020183815260200182815260200192505050604051602081830303815290604052805190602001209050919050565b60007f00000000000000000000000000000000000000000000000000000000000000007f00000000000000000000000000000000000000000000000000000000000000007f00000000000000000000000000000000000000000000000000000000000000006105e96107c3565b30604051602001808681526020018581526020018481526020018381526020018273ffffffffffffffffffffffffffffffffffffffff1681526020019550505050505060405160208183030381529060405280519060200120905090565b60006106688473ffffffffffffffffffffffffffffffffffffffff166107c7565b1561079e57604080517f1626ba7e000000000000000000000000000000000000000000000000000000008082526004820186815260248301938452855160448401528551919373ffffffffffffffffffffffffffffffffffffffff891693631626ba7e938993899390929091606490910190602085019080838360005b838110156106fd5781810151838201526020016106e5565b50505050905090810190601f16801561072a5780820380516001836020036101000a031916815260200191505b50935050505060206040518083038186803b15801561074857600080fd5b505afa15801561075c573d6000803e3d6000fd5b505050506040513d602081101561077257600080fd5b50517fffffffff0000000000000000000000000000000000000000000000000000000016149050610468565b6107a98484846107cd565b949350505050565b816107bf576107bf816108df565b5050565b4690565b3b151590565b60006107df82516041146101b96107b1565b60008060006020850151925060408501519150606085015160001a9050600060018783868660405160008152602001604052604051808581526020018460ff1681526020018381526020018281526020019450505050506020604051602081039080840390855afa158015610858573d6000803e3d6000fd5b50506040517fffffffffffffffffffffffffffffffffffffffffffffffffffffffffffffffe0015191505073ffffffffffffffffffffffffffffffffffffffff8116158015906108d357508773ffffffffffffffffffffffffffffffffffffffff168173ffffffffffffffffffffffffffffffffffffffff16145b98975050505050505050565b610909817f42414c000000000000000000000000000000000000000000000000000000000061090c565b50565b7f08c379a000000000000000000000000000000000000000000000000000000000600090815260206004526007602452600a808404818106603090810160081b958390069590950190829004918206850160101b01602363ffffff0060e086901c160160181b0190930160c81b60445260e882901c90606490fdfea2646970667358221220528834abea9c69a0e414df9c5d31c1128be28bc18fe478bd5d53eac1a220a26b64736f6c63430007010033",
  "linkReferences": {},
  "deployedLinkReferences": {}
}