{
  "_format": "hh-sol-artifact-1",
  "contractName": "MockWordCodec",
  "sourceName": "contracts/test/MockWordCodec.sol",
  "abi": [
    {
      "inputs": [
        {
          "internalType": "bytes32",
          "name": "value",
          "type": "bytes32"
        },
        {
          "internalType": "uint256",
          "name": "offset",
          "type": "uint256"
        },
        {
          "internalType": "uint256",
          "name": "bitLength",
          "type": "uint256"
        }
      ],
      "name": "decodeInt",
      "outputs": [
        {
          "internalType": "int256",
          "name": "",
          "type": "int256"
        }
      ],
      "stateMutability": "pure",
      "type": "function"
    },
    {
      "inputs": [
        {
          "internalType": "bytes32",
          "name": "value",
          "type": "bytes32"
        },
        {
          "internalType": "uint256",
          "name": "offset",
          "type": "uint256"
        },
        {
          "internalType": "uint256",
          "name": "bitLength",
          "type": "uint256"
        }
      ],
      "name": "decodeUint",
      "outputs": [
        {
          "internalType": "uint256",
          "name": "",
          "type": "uint256"
        }
      ],
      "stateMutability": "pure",
      "type": "function"
    },
    {
      "inputs": [
        {
          "internalType": "int256",
          "name": "value",
          "type": "int256"
        },
        {
          "internalType": "uint256",
          "name": "offset",
          "type": "uint256"
        },
        {
          "internalType": "uint256",
          "name": "bitLength",
          "type": "uint256"
        }
      ],
      "name": "encodeInt",
      "outputs": [
        {
          "internalType": "bytes32",
          "name": "",
          "type": "bytes32"
        }
      ],
      "stateMutability": "pure",
      "type": "function"
    },
    {
      "inputs": [
        {
          "internalType": "uint256",
          "name": "value",
          "type": "uint256"
        },
        {
          "internalType": "uint256",
          "name": "offset",
          "type": "uint256"
        },
        {
          "internalType": "uint256",
          "name": "bitLength",
          "type": "uint256"
        }
      ],
      "name": "encodeUint",
      "outputs": [
        {
          "internalType": "bytes32",
          "name": "",
          "type": "bytes32"
        }
      ],
      "stateMutability": "pure",
      "type": "function"
    },
    {
      "inputs": [
        {
          "internalType": "bytes32",
          "name": "word",
          "type": "bytes32"
        },
        {
          "internalType": "int256",
          "name": "value",
          "type": "int256"
        },
        {
          "internalType": "uint256",
          "name": "offset",
          "type": "uint256"
        },
        {
          "internalType": "uint256",
          "name": "bitLength",
          "type": "uint256"
        }
      ],
      "name": "insertInt",
      "outputs": [
        {
          "internalType": "bytes32",
          "name": "",
          "type": "bytes32"
        }
      ],
      "stateMutability": "pure",
      "type": "function"
    },
    {
      "inputs": [
        {
          "internalType": "bytes32",
          "name": "word",
          "type": "bytes32"
        },
        {
          "internalType": "uint256",
          "name": "value",
          "type": "uint256"
        },
        {
          "internalType": "uint256",
          "name": "offset",
          "type": "uint256"
        },
        {
          "internalType": "uint256",
          "name": "bitLength",
          "type": "uint256"
        }
      ],
      "name": "insertUint",
      "outputs": [
        {
          "internalType": "bytes32",
          "name": "",
          "type": "bytes32"
        }
      ],
      "stateMutability": "pure",
      "type": "function"
    }
  ],
  "bytecode": "0x608060405234801561001057600080fd5b50610483806100206000396000f3fe608060405234801561001057600080fd5b50600436106100725760003560e01c80634cf60a71116100505780634cf60a71146101045780639223250a14610133578063a427ee1e1461015c57610072565b80631bbdab7f146100775780632393cb9e146100b257806337b1cd81146100db575b600080fd5b6100a06004803603606081101561008d57600080fd5b508035906020810135906040013561018b565b60408051918252519081900360200190f35b6100a0600480360360608110156100c857600080fd5b50803590602081013590604001356101a0565b6100a0600480360360608110156100f157600080fd5b50803590602081013590604001356101ad565b6100a06004803603608081101561011a57600080fd5b50803590602081013590604081013590606001356101ba565b6100a06004803603606081101561014957600080fd5b50803590602081013590604001356101d1565b6100a06004803603608081101561017257600080fd5b50803590602081013590604081013590606001356101de565b60006101988484846101ec565b949350505050565b60006101988484846101fb565b6000610198848484610230565b60006101c88585858561024f565b95945050505050565b6000610198848484610272565b60006101c885858585610285565b6001901b6000190191901c1690565b6000600160001980840182901b810191841b0185851c81168281136102205780610225565b811981175b979650505050505050565b600061023d8484846102ad565b506001901b6000190191909116901b90565b600061025c848484610329565b506001901b60001901811b1992909216911b1790565b600061027f848484610329565b50501b90565b60006102928484846102ad565b50600019600190911b01918216811b91901b19919091161790565b6102bc61010083106064610361565b6102e5600182101580156102de57506102da60ff8461010003610373565b8211155b6064610361565b6000831261030657610301600019820184901d156101b4610361565b610324565b610324600182036103198560010161038b565b901c156101b4610361565b505050565b61033861010083106064610361565b610356600182101580156102de57506102da60ff8461010003610373565b61032483821c156101b45b8161036f5761036f816103a5565b5050565b60008183106103825781610384565b825b9392505050565b600080821361039d578160000361039f565b815b92915050565b6103cf817f42414c00000000000000000000000000000000000000000000000000000000006103d2565b50565b7f08c379a000000000000000000000000000000000000000000000000000000000600090815260206004526007602452600a808404818106603090810160081b958390069590950190829004918206850160101b01602363ffffff0060e086901c160160181b0190930160c81b60445260e882901c90606490fdfea2646970667358221220b932a1c86acb889db8c5c0c603d7d33afc7e34a068653c7402b2bf488cbece3564736f6c63430007010033",
  "linkReferences": {},
  "deployedLinkReferences": {}
}