{
  "_format": "hh-sol-artifact-1",
  "contractName": "OptionalOnlyCallerMock",
  "sourceName": "contracts/test/OptionalOnlyCallerMock.sol",
  "abi": [
    {
      "inputs": [],
      "stateMutability": "nonpayable",
      "type": "constructor"
    },
    {
      "anonymous": false,
      "inputs": [
        {
          "indexed": false,
          "internalType": "address",
          "name": "user",
          "type": "address"
        },
        {
          "indexed": false,
          "internalType": "bool",
          "name": "enabled",
          "type": "bool"
        }
      ],
      "name": "OnlyCallerOptIn",
      "type": "event"
    },
    {
      "anonymous": false,
      "inputs": [],
      "name": "TestFunctionCalled",
      "type": "event"
    },
    {
      "inputs": [],
      "name": "getDomainSeparator",
      "outputs": [
        {
          "internalType": "bytes32",
          "name": "",
          "type": "bytes32"
        }
      ],
      "stateMutability": "view",
      "type": "function"
    },
    {
      "inputs": [
        {
          "internalType": "address",
          "name": "account",
          "type": "address"
        }
      ],
      "name": "getNextNonce",
      "outputs": [
        {
          "internalType": "uint256",
          "name": "",
          "type": "uint256"
        }
      ],
      "stateMutability": "view",
      "type": "function"
    },
    {
      "inputs": [
        {
          "internalType": "address",
          "name": "user",
          "type": "address"
        }
      ],
      "name": "isOnlyCallerEnabled",
      "outputs": [
        {
          "internalType": "bool",
          "name": "",
          "type": "bool"
        }
      ],
      "stateMutability": "view",
      "type": "function"
    },
    {
      "inputs": [
        {
          "internalType": "bool",
          "name": "enabled",
          "type": "bool"
        }
      ],
      "name": "setOnlyCallerCheck",
      "outputs": [],
      "stateMutability": "nonpayable",
      "type": "function"
    },
    {
      "inputs": [
        {
          "internalType": "address",
          "name": "user",
          "type": "address"
        },
        {
          "internalType": "bool",
          "name": "enabled",
          "type": "bool"
        },
        {
          "internalType": "bytes",
          "name": "signature",
          "type": "bytes"
        }
      ],
      "name": "setOnlyCallerCheckWithSignature",
      "outputs": [],
      "stateMutability": "nonpayable",
      "type": "function"
    },
    {
      "inputs": [
        {
          "internalType": "address",
          "name": "user",
          "type": "address"
        }
      ],
      "name": "testFunction",
      "outputs": [],
      "stateMutability": "nonpayable",
      "type": "function"
    }
  ],
  "bytecode": "0x60e060405234801561001057600080fd5b50604080518082018252601681527f4f7074696f6e616c4f6e6c7943616c6c65724d6f636b000000000000000000006020808301918252835180850190945260018452603160f81b908401908152915190206080529051902060a0527f8b73c3c69bb8fe3d512ecc4cf759cc79239f7b179b0ffacaa9a75d522b39400f60c05260805160a05160c0516109896100bc6000398061045552508061049752508061047652506109896000f3fe608060405234801561001057600080fd5b50600436106100725760003560e01c8063e811f44b11610050578063e811f44b14610138578063ed24911d14610157578063fcaa54ee1461015f57610072565b8063117e50c81461007757806390193b7c146100ac578063a1648aa5146100f1575b600080fd5b6100aa6004803603602081101561008d57600080fd5b503573ffffffffffffffffffffffffffffffffffffffff16610229565b005b6100df600480360360208110156100c257600080fd5b503573ffffffffffffffffffffffffffffffffffffffff16610260565b60408051918252519081900360200190f35b6101246004803603602081101561010757600080fd5b503573ffffffffffffffffffffffffffffffffffffffff16610288565b604080519115158252519081900360200190f35b6100aa6004803603602081101561014e57600080fd5b503515156102b3565b6100df6102c0565b6100aa6004803603606081101561017557600080fd5b73ffffffffffffffffffffffffffffffffffffffff8235169160208101351515918101906060810160408201356401000000008111156101b457600080fd5b8201836020820111156101c657600080fd5b803590602001918460018302840111640100000000831117156101e857600080fd5b91908080601f0160208091040260200160405190810160405280939291908181526020018383808284376000920191909152509295506102cf945050505050565b8061023381610370565b6040517fc8e6e3416db8e7eb47c78bf9564cd6df66b5fc5abfebbef40c97931cb4ed72e890600090a15050565b73ffffffffffffffffffffffffffffffffffffffff1660009081526020819052604090205490565b73ffffffffffffffffffffffffffffffffffffffff1660009081526001602052604090205460ff1690565b6102bd33826103c2565b50565b60006102ca610451565b905090565b60007fbd291ffccec065968fe20c5f8debdad73ab50837733f357eeae8814178015a9084846102fd87610260565b604051602001808581526020018473ffffffffffffffffffffffffffffffffffffffff16815260200183151581526020018281526020019450505050506040516020818303038152906040528051906020012090506103608482846101f861051c565b61036a84846103c2565b50505050565b73ffffffffffffffffffffffffffffffffffffffff811660009081526001602052604090205460ff16156102bd576102bd3373ffffffffffffffffffffffffffffffffffffffff831614610191610549565b73ffffffffffffffffffffffffffffffffffffffff821660008181526001602090815260409182902080547fffffffffffffffffffffffffffffffffffffffffffffffffffffffffffffff001685151590811790915582519384529083015280517fac9874a7a931a3f5c9f202c6d9cf40de5d21506993c9f9c38ca8265add89584c9281900390910190a15050565b60007f00000000000000000000000000000000000000000000000000000000000000007f00000000000000000000000000000000000000000000000000000000000000007f00000000000000000000000000000000000000000000000000000000000000006104be61055b565b30604051602001808681526020018581526020018481526020018381526020018273ffffffffffffffffffffffffffffffffffffffff1681526020019550505050505060405160208183030381529060405280519060200120905090565b61036a8484847fffffffffffffffffffffffffffffffffffffffffffffffffffffffffffffffff8561055f565b8161055757610557816105c3565b5050565b4690565b600061056a856105ed565b905061058061057a878387610654565b83610549565b61058f428410156101b8610549565b50505073ffffffffffffffffffffffffffffffffffffffff9092166000908152602081905260409020805460010190555050565b6102bd817f42414c00000000000000000000000000000000000000000000000000000000006107c0565b60006105f7610451565b8260405160200180807f190100000000000000000000000000000000000000000000000000000000000081525060020183815260200182815260200192505050604051602081830303815290604052805190602001209050919050565b60006106758473ffffffffffffffffffffffffffffffffffffffff1661083b565b156107ab57604080517f1626ba7e000000000000000000000000000000000000000000000000000000008082526004820186815260248301938452855160448401528551919373ffffffffffffffffffffffffffffffffffffffff891693631626ba7e938993899390929091606490910190602085019080838360005b8381101561070a5781810151838201526020016106f2565b50505050905090810190601f1680156107375780820380516001836020036101000a031916815260200191505b50935050505060206040518083038186803b15801561075557600080fd5b505afa158015610769573d6000803e3d6000fd5b505050506040513d602081101561077f57600080fd5b50517fffffffff00000000000000000000000000000000000000000000000000000000161490506107b9565b6107b6848484610841565b90505b9392505050565b7f08c379a000000000000000000000000000000000000000000000000000000000600090815260206004526007602452600a808404818106603090810160081b958390069590950190829004918206850160101b01602363ffffff0060e086901c160160181b0190930160c81b60445260e882901c90606490fd5b3b151590565b600061085382516041146101b9610549565b60008060006020850151925060408501519150606085015160001a9050600060018783868660405160008152602001604052604051808581526020018460ff1681526020018381526020018281526020019450505050506020604051602081039080840390855afa1580156108cc573d6000803e3d6000fd5b50506040517fffffffffffffffffffffffffffffffffffffffffffffffffffffffffffffffe0015191505073ffffffffffffffffffffffffffffffffffffffff81161580159061094757508773ffffffffffffffffffffffffffffffffffffffff168173ffffffffffffffffffffffffffffffffffffffff16145b9897505050505050505056fea26469706673582212206c6ad6a72436682b2aa671876ae95c9c5dce83843247b63db49ec8e08fd388e164736f6c63430007010033",
  "linkReferences": {},
  "deployedLinkReferences": {}
}