{
  "_format": "hh-sol-artifact-1",
  "contractName": "CodeDeployerFactory",
  "sourceName": "contracts/test/CodeDeployerFactory.sol",
  "abi": [
    {
      "anonymous": false,
      "inputs": [
        {
          "indexed": false,
          "internalType": "address",
          "name": "at",
          "type": "address"
        }
      ],
      "name": "CodeDeployed",
      "type": "event"
    },
    {
      "inputs": [
        {
          "internalType": "bytes",
          "name": "data",
          "type": "bytes"
        }
      ],
      "name": "deploy",
      "outputs": [],
      "stateMutability": "nonpayable",
      "type": "function"
    }
  ],
  "bytecode": "0x608060405234801561001057600080fd5b50610282806100206000396000f3fe608060405234801561001057600080fd5b506004361061002a5760003560e01c80627743601461002f575b600080fd5b6100d56004803603602081101561004557600080fd5b81019060208101813564010000000081111561006057600080fd5b82018360208201111561007257600080fd5b8035906020019184600183028401116401000000008311171561009457600080fd5b91908080601f0160208091040260200160405190810160405280939291908181526020018383808284376000920191909152509295506100d7945050505050565b005b60006100e282610133565b6040805173ffffffffffffffffffffffffffffffffffffffff8316815290519192507fea3e8fadbb616efc14cb41f88bca45fca14e4eb41f13eb4c8d2ffcf8695a62c4919081900360200190a15050565b80517f602038038060206000396000f3fefefefefefefefefefefefefefefefefefefe808352600091602081018484f0908452915061018c73ffffffffffffffffffffffffffffffffffffffff831615156101ac610192565b50919050565b816101a0576101a0816101a4565b5050565b6101ce817f42414c00000000000000000000000000000000000000000000000000000000006101d1565b50565b7f08c379a000000000000000000000000000000000000000000000000000000000600090815260206004526007602452600a808404818106603090810160081b958390069590950190829004918206850160101b01602363ffffff0060e086901c160160181b0190930160c81b60445260e882901c90606490fdfea264697066735822122039da0925287c52277da8a10b9403fc8a5a782ef81915dd743c2f5a21d008f13a64736f6c63430007010033",
  "linkReferences": {},
  "deployedLinkReferences": {}
}