{
  "_format": "hh-sol-artifact-1",
  "contractName": "ExtraCalldataEOASignaturesValidatorMock",
  "sourceName": "contracts/test/ExtraCalldataEOASignaturesValidatorMock.sol",
  "abi": [
    {
      "inputs": [],
      "stateMutability": "nonpayable",
      "type": "constructor"
    },
    {
      "anonymous": false,
      "inputs": [
        {
          "indexed": false,
          "internalType": "address",
          "name": "user",
          "type": "address"
        },
        {
          "indexed": false,
          "internalType": "address",
          "name": "sender",
          "type": "address"
        }
      ],
      "name": "Authenticated",
      "type": "event"
    },
    {
      "anonymous": false,
      "inputs": [
        {
          "indexed": false,
          "internalType": "bytes",
          "name": "data",
          "type": "bytes"
        },
        {
          "indexed": false,
          "internalType": "uint256",
          "name": "deadline",
          "type": "uint256"
        },
        {
          "indexed": false,
          "internalType": "bytes",
          "name": "signature",
          "type": "bytes"
        }
      ],
      "name": "CalldataDecoded",
      "type": "event"
    },
    {
      "inputs": [
        {
          "internalType": "address",
          "name": "user",
          "type": "address"
        }
      ],
      "name": "anotherFunction",
      "outputs": [],
      "stateMutability": "nonpayable",
      "type": "function"
    },
    {
      "inputs": [
        {
          "internalType": "address",
          "name": "user",
          "type": "address"
        }
      ],
      "name": "authenticateCall",
      "outputs": [],
      "stateMutability": "nonpayable",
      "type": "function"
    },
    {
      "inputs": [],
      "name": "decodeCalldata",
      "outputs": [],
      "stateMutability": "nonpayable",
      "type": "function"
    },
    {
      "inputs": [],
      "name": "getDomainSeparator",
      "outputs": [
        {
          "internalType": "bytes32",
          "name": "",
          "type": "bytes32"
        }
      ],
      "stateMutability": "view",
      "type": "function"
    },
    {
      "inputs": [
        {
          "internalType": "address",
          "name": "account",
          "type": "address"
        }
      ],
      "name": "getNextNonce",
      "outputs": [
        {
          "internalType": "uint256",
          "name": "",
          "type": "uint256"
        }
      ],
      "stateMutability": "view",
      "type": "function"
    },
    {
      "inputs": [
        {
          "internalType": "address",
          "name": "user",
          "type": "address"
        }
      ],
      "name": "increaseNonce",
      "outputs": [],
      "stateMutability": "nonpayable",
      "type": "function"
    }
  ],
  "bytecode": "0x60e060405234801561001057600080fd5b50604080518082018252601181527010985b185b98d95c88158c8815985d5b1d607a1b6020808301918252835180850190945260018452603160f81b908401908152915190206080529051902060a0527f8b73c3c69bb8fe3d512ecc4cf759cc79239f7b179b0ffacaa9a75d522b39400f60c05260805160a05160c0516108d36100b06000398061041952508061045b52508061043a52506108d36000f3fe608060405234801561001057600080fd5b50600436106100725760003560e01c806390193b7c1161005057806390193b7c1461011257806394df26d614610157578063ed24911d1461015f57610072565b806325e511851461007757806378ea7ae7146100ac5780638247a97c146100df575b600080fd5b6100aa6004803603602081101561008d57600080fd5b503573ffffffffffffffffffffffffffffffffffffffff16610167565b005b6100aa600480360360208110156100c257600080fd5b503573ffffffffffffffffffffffffffffffffffffffff166101ce565b6100aa600480360360208110156100f557600080fd5b503573ffffffffffffffffffffffffffffffffffffffff166101d1565b6101456004803603602081101561012857600080fd5b503573ffffffffffffffffffffffffffffffffffffffff166101fe565b60408051918252519081900360200190f35b6100aa610226565b610145610230565b610173816101f8610240565b61017b6102f6565b6040805173ffffffffffffffffffffffffffffffffffffffff8316815233602082015281517fd42c368decf104a7572c7884ea7028fe04ef7d3e76dbd706484f9175d6c4ec62929181900390910190a150565b50565b73ffffffffffffffffffffffffffffffffffffffff16600090815260208190526040902080546001019055565b73ffffffffffffffffffffffffffffffffffffffff1660009081526020819052604090205490565b61022e6102f6565b565b600061023a610415565b90505b90565b600061024a6104e0565b905061025881151583610504565b6000610262610516565b905060008261026f610522565b8051906020012033610280886101fe565b85604051602001808681526020018581526020018473ffffffffffffffffffffffffffffffffffffffff168152602001838152602001828152602001955050505050506040516020818303038152906040528051906020012090506102ef85826102e8610571565b85886105b0565b5050505050565b7f47b13e41770d843920b679f7227bddad751c5700462da5fb2139bafa724c98f661031f610522565b610327610516565b61032f610571565b604051808060200184815260200180602001838103835286818151815260200191508051906020019080838360005b8381101561037657818101518382015260200161035e565b50505050905090810190601f1680156103a35780820380516001836020036101000a031916815260200191505b50838103825284518152845160209182019186019080838360005b838110156103d65781810151838201526020016103be565b50505050905090810190601f1680156104035780820380516001836020036101000a031916815260200191505b509550505050505060405180910390a1565b60007f00000000000000000000000000000000000000000000000000000000000000007f00000000000000000000000000000000000000000000000000000000000000007f0000000000000000000000000000000000000000000000000000000000000000610482610614565b30604051602001808681526020018581526020018481526020018381526020018273ffffffffffffffffffffffffffffffffffffffff1681526020019550505050505060405160208183030381529060405280519060200120905090565b7f088e910861b9d0ac056c32bb5d44fcdd155bbfa025bdca87c7390e174ac6179590565b816105125761051281610618565b5050565b600061023a6000610642565b60606000368080601f01602080910402602001604051908101604052809392919081815260200183838082843760009201919091525050825192935050506080101561023d5760803603815290565b6060600061057f6020610642565b9050600061058d6040610642565b9050600061059b6060610642565b90506105a883838361066a565b935050505090565b60006105bb856106a9565b90506105d16105cb878387610710565b83610504565b6105e0428410156101b8610504565b50505073ffffffffffffffffffffffffffffffffffffffff9092166000908152602081905260409020805460010190555050565b4690565b6101ce817f42414c0000000000000000000000000000000000000000000000000000000000610822565b36017fffffffffffffffffffffffffffffffffffffffffffffffffffffffffffffff80013590565b60408051604180825260808201909252606091829190602082018180368337019050509050836020820152826040820152846060820153949350505050565b60006106b3610415565b8260405160200180807f190100000000000000000000000000000000000000000000000000000000000081525060020183815260200182815260200192505050604051602081830303815290604052805190602001209050919050565b600061072282516041146101b9610504565b60008060006020850151925060408501519150606085015160001a9050600060018783868660405160008152602001604052604051808581526020018460ff1681526020018381526020018281526020019450505050506020604051602081039080840390855afa15801561079b573d6000803e3d6000fd5b50506040517fffffffffffffffffffffffffffffffffffffffffffffffffffffffffffffffe0015191505073ffffffffffffffffffffffffffffffffffffffff81161580159061081657508773ffffffffffffffffffffffffffffffffffffffff168173ffffffffffffffffffffffffffffffffffffffff16145b98975050505050505050565b7f08c379a000000000000000000000000000000000000000000000000000000000600090815260206004526007602452600a808404818106603090810160081b958390069590950190829004918206850160101b01602363ffffff0060e086901c160160181b0190930160c81b60445260e882901c90606490fdfea2646970667358221220da50b7fd3cb4cdf37ffac5c64e3f4c81b0d27b54e2e9add02e22b679ffe1972a64736f6c63430007010033",
  "linkReferences": {},
  "deployedLinkReferences": {}
}