{
  "_format": "hh-sol-artifact-1",
  "contractName": "TemporarilyPausableMock",
  "sourceName": "contracts/test/TemporarilyPausableMock.sol",
  "abi": [
    {
      "inputs": [
        {
          "internalType": "uint256",
          "name": "pauseWindowDuration",
          "type": "uint256"
        },
        {
          "internalType": "uint256",
          "name": "bufferPeriodDuration",
          "type": "uint256"
        }
      ],
      "stateMutability": "nonpayable",
      "type": "constructor"
    },
    {
      "anonymous": false,
      "inputs": [
        {
          "indexed": false,
          "internalType": "bool",
          "name": "paused",
          "type": "bool"
        }
      ],
      "name": "PausedStateChanged",
      "type": "event"
    },
    {
      "inputs": [],
      "name": "getPausedState",
      "outputs": [
        {
          "internalType": "bool",
          "name": "paused",
          "type": "bool"
        },
        {
          "internalType": "uint256",
          "name": "pauseWindowEndTime",
          "type": "uint256"
        },
        {
          "internalType": "uint256",
          "name": "bufferPeriodEndTime",
          "type": "uint256"
        }
      ],
      "stateMutability": "view",
      "type": "function"
    },
    {
      "inputs": [
        {
          "internalType": "bool",
          "name": "paused",
          "type": "bool"
        }
      ],
      "name": "setPaused",
      "outputs": [],
      "stateMutability": "nonpayable",
      "type": "function"
    }
  ],
  "bytecode": "0x60c060405234801561001057600080fd5b506040516103b13803806103b18339818101604052604081101561003357600080fd5b50805160209091015181816100506276a700831115610194610077565b61006262278d00821115610195610077565b4290910160808190520160a052506100fd9050565b816100855761008581610089565b5050565b610099816210905360ea1b61009c565b50565b62461bcd60e51b600090815260206004526007602452600a808404818106603090810160081b958390069590950190829004918206850160101b01602363ffffff0060e086901c160160181b0190930160c81b60445260e882901c90606490fd5b60805160a0516102916101206000398061019852508061017452506102916000f3fe608060405234801561001057600080fd5b50600436106100365760003560e01c806316c38b3c1461003b5780631c0de0511461005c575b600080fd5b61005a6004803603602081101561005157600080fd5b50351515610084565b005b610064610090565b604080519315158452602084019290925282820152519081900360600190f35b61008d816100b9565b50565b600080600061009d610153565b1592506100a8610172565b91506100b2610196565b9050909192565b80156100d9576100d46100ca610172565b42106101936101ba565b6100ee565b6100ee6100e4610196565b42106101a96101ba565b600080548215157fffffffffffffffffffffffffffffffffffffffffffffffffffffffffffffff00909116811790915560408051918252517f9e3a5e37224532dea67b89face185703738a228a6e8a23dee546960180d3be649181900360200190a150565b600061015d610196565b42118061016d575060005460ff16155b905090565b7f000000000000000000000000000000000000000000000000000000000000000090565b7f000000000000000000000000000000000000000000000000000000000000000090565b816101c8576101c8816101cc565b5050565b7f08c379a000000000000000000000000000000000000000000000000000000000600090815260206004526007602452600a808304818106603090810160081b83860601918390049283060160101b016642414c230000300160c81b60445261008d917f42414c0000000000000000000000000000000000000000000000000000000000906242414c90606490fdfea264697066735822122057049f2c9ee7266a3d5235f85cee7d6e8e6658ee6c858f3c42f96f32903cd56764736f6c63430007010033",
  "linkReferences": {},
  "deployedLinkReferences": {}
}