{
  "_format": "hh-sol-artifact-1",
  "contractName": "MockLogCompression",
  "sourceName": "contracts/test/MockLogCompression.sol",
  "abi": [
    {
      "inputs": [
        {
          "internalType": "int256",
          "name": "value",
          "type": "int256"
        }
      ],
      "name": "fromLowResLog",
      "outputs": [
        {
          "internalType": "uint256",
          "name": "",
          "type": "uint256"
        }
      ],
      "stateMutability": "pure",
      "type": "function"
    },
    {
      "inputs": [
        {
          "internalType": "uint256",
          "name": "value",
          "type": "uint256"
        }
      ],
      "name": "toLowResLog",
      "outputs": [
        {
          "internalType": "int256",
          "name": "",
          "type": "int256"
        }
      ],
      "stateMutability": "pure",
      "type": "function"
    }
  ],
  "bytecode": "0x608060405234801561001057600080fd5b50610beb806100206000396000f3fe608060405234801561001057600080fd5b50600436106100365760003560e01c806357aad0131461003b578063abb9d0d51461006a575b600080fd5b6100586004803603602081101561005157600080fd5b5035610087565b60408051918252519081900360200190f35b6100586004803603602081101561008057600080fd5b503561009a565b6000610092826100a5565b90505b919050565b6000610092826100e5565b6000806100b1836100f8565b905060008082136100ca57652d79883d200082036100d4565b652d79883d200082015b655af3107a40009005949350505050565b6000610092655af3107a4000830261015c565b6000610108600083136064610624565b670c7d713b49da0000821380156101265750670f43fc2c04ee000082125b1561014c57670de0b6b3a764000061013d83610636565b8161014457fe5b059050610095565b6101558261076d565b9050610095565b60006101a17ffffffffffffffffffffffffffffffffffffffffffffffffdc702bd3a30fc0000831215801561019a575068070c1cc73b00c800008313155b6009610624565b60008212156101cd576101b68260000361015c565b6ec097ce7bc90715b34b9f10000000008161014457fe5b60006806f05b59d3b2000000831261022357507ffffffffffffffffffffffffffffffffffffffffffffffff90fa4a62c4e00000090910190770195e54c5dd42177f53a27172fa9ec63026282700000000061026f565b6803782dace9d9000000831261026b57507ffffffffffffffffffffffffffffffffffffffffffffffffc87d2531627000000909101906b1425982cf597cd205cef738061026f565b5060015b6064929092029168056bc75e2d6310000068ad78ebc5ac6200000084126102d5577fffffffffffffffffffffffffffffffffffffffffffffff5287143a539e0000009093019268056bc75e2d631000006e01855144814a7ff805980ff008400082020590505b6856bc75e2d6310000008412610327577fffffffffffffffffffffffffffffffffffffffffffffffa9438a1d29cf0000009093019268056bc75e2d631000006b02df0ab5a80a22c61ab5a70082020590505b682b5e3af16b188000008412610377577fffffffffffffffffffffffffffffffffffffffffffffffd4a1c50e94e78000009093019268056bc75e2d63100000693f1fce3da636ea5cf85082020590505b6815af1d78b58c40000084126103c7577fffffffffffffffffffffffffffffffffffffffffffffffea50e2874a73c000009093019268056bc75e2d63100000690127fa27722cc06cc5e282020590505b680ad78ebc5ac62000008412610416577ffffffffffffffffffffffffffffffffffffffffffffffff5287143a539e000009093019268056bc75e2d6310000068280e60114edb805d0382020590505b68056bc75e2d631000008412610465577ffffffffffffffffffffffffffffffffffffffffffffffffa9438a1d29cf000009093019268056bc75e2d63100000680ebc5fb4174612111082020590505b6802b5e3af16b188000084126104b4577ffffffffffffffffffffffffffffffffffffffffffffffffd4a1c50e94e7800009093019268056bc75e2d631000006808f00f760a4b2db55d82020590505b68015af1d78b58c400008412610503577ffffffffffffffffffffffffffffffffffffffffffffffffea50e2874a73c00009093019268056bc75e2d631000006806f5f177578893793782020590505b68056bc75e2d631000008481019085906002908280020505918201919050600368056bc75e2d631000008783020505918201919050600468056bc75e2d631000008783020505918201919050600568056bc75e2d631000008783020505918201919050600668056bc75e2d631000008783020505918201919050600768056bc75e2d631000008783020505918201919050600868056bc75e2d631000008783020505918201919050600968056bc75e2d631000008783020505918201919050600a68056bc75e2d631000008783020505918201919050600b68056bc75e2d631000008783020505918201919050600c68056bc75e2d631000008783020505918201919050606468056bc75e2d63100000848402058502059695505050505050565b816106325761063281610b0d565b5050565b670de0b6b3a7640000026000806ec097ce7bc90715b34b9f1000000000808401907fffffffffffffffffffffffffffffffffff3f68318436f8ea4cb460f0000000008501028161068257fe5b05905060006ec097ce7bc90715b34b9f100000000082800205905081806ec097ce7bc90715b34b9f100000000081840205915060038205016ec097ce7bc90715b34b9f100000000082840205915060058205016ec097ce7bc90715b34b9f100000000082840205915060078205016ec097ce7bc90715b34b9f100000000082840205915060098205016ec097ce7bc90715b34b9f1000000000828402059150600b8205016ec097ce7bc90715b34b9f1000000000828402059150600d8205016ec097ce7bc90715b34b9f1000000000828402059150600f826002919005919091010295945050505050565b6000670de0b6b3a76400008212156107aa576107a0826ec097ce7bc90715b34b9f10000000008161079a57fe5b0561076d565b6000039050610095565b60007e1600ef3172e58d2e933ec884fde10064c63b5372d805e203c000000000000083126107fb57770195e54c5dd42177f53a27172fa9ec630262827000000000830592506806f05b59d3b2000000015b73011798004d755d3c8bc8e03204cf44619e0000008312610833576b1425982cf597cd205cef7380830592506803782dace9d9000000015b606492830292026e01855144814a7ff805980ff0084000831261087b576e01855144814a7ff805980ff008400068056bc75e2d63100000840205925068ad78ebc5ac62000000015b6b02df0ab5a80a22c61ab5a70083126108b6576b02df0ab5a80a22c61ab5a70068056bc75e2d6310000084020592506856bc75e2d631000000015b693f1fce3da636ea5cf85083126108ed57693f1fce3da636ea5cf85068056bc75e2d631000008402059250682b5e3af16b18800000015b690127fa27722cc06cc5e2831261092457690127fa27722cc06cc5e268056bc75e2d6310000084020592506815af1d78b58c400000015b68280e60114edb805d0383126109595768280e60114edb805d0368056bc75e2d631000008402059250680ad78ebc5ac6200000015b680ebc5fb41746121110831261098457680ebc5fb4174612111068056bc75e2d631000009384020592015b6808f00f760a4b2db55d83126109b9576808f00f760a4b2db55d68056bc75e2d6310000084020592506802b5e3af16b1880000015b6806f5f177578893793783126109ee576806f5f177578893793768056bc75e2d63100000840205925068015af1d78b58c40000015b6806248f33704b2866038312610a22576806248f33704b28660368056bc75e2d63100000840205925067ad78ebc5ac620000015b6805c548670b9510e7ac8312610a56576805c548670b9510e7ac68056bc75e2d6310000084020592506756bc75e2d6310000015b600068056bc75e2d63100000840168056bc75e2d631000008086030281610a7957fe5b059050600068056bc75e2d63100000828002059050818068056bc75e2d63100000818402059150600382050168056bc75e2d63100000828402059150600582050168056bc75e2d63100000828402059150600782050168056bc75e2d63100000828402059150600982050168056bc75e2d63100000828402059150600b820501600202606485820105979650505050505050565b610b37817f42414c0000000000000000000000000000000000000000000000000000000000610b3a565b50565b7f08c379a000000000000000000000000000000000000000000000000000000000600090815260206004526007602452600a808404818106603090810160081b958390069590950190829004918206850160101b01602363ffffff0060e086901c160160181b0190930160c81b60445260e882901c90606490fdfea2646970667358221220dd1d7467829ee925c5265e4a7557739161d9cf874b4abf8ffe5ab2ecf13b469564736f6c63430007010033",
  "linkReferences": {},
  "deployedLinkReferences": {}
}