{
  "_format": "hh-sol-artifact-1",
  "contractName": "SingletonAuthenticationMock",
  "sourceName": "contracts/test/SingletonAuthenticationMock.sol",
  "abi": [
    {
      "inputs": [
        {
          "internalType": "contract IVault",
          "name": "vault",
          "type": "address"
        }
      ],
      "stateMutability": "nonpayable",
      "type": "constructor"
    },
    {
      "inputs": [
        {
          "internalType": "bytes4",
          "name": "selector",
          "type": "bytes4"
        }
      ],
      "name": "getActionId",
      "outputs": [
        {
          "internalType": "bytes32",
          "name": "",
          "type": "bytes32"
        }
      ],
      "stateMutability": "view",
      "type": "function"
    },
    {
      "inputs": [],
      "name": "getAuthorizer",
      "outputs": [
        {
          "internalType": "contract IAuthorizer",
          "name": "",
          "type": "address"
        }
      ],
      "stateMutability": "view",
      "type": "function"
    },
    {
      "inputs": [],
      "name": "getVault",
      "outputs": [
        {
          "internalType": "contract IVault",
          "name": "",
          "type": "address"
        }
      ],
      "stateMutability": "view",
      "type": "function"
    }
  ],
  "bytecode": "0x60c060405234801561001057600080fd5b5060405161028e38038061028e8339818101604052602081101561003357600080fd5b5051306080819052606082901b6001600160601b03191660a052906001600160a01b031661021b6100736000398061014352508060d6525061021b6000f3fe608060405234801561001057600080fd5b50600436106100415760003560e01c8063851c1bb3146100465780638d928af814610097578063aaabadc5146100c8575b600080fd5b6100856004803603602081101561005c57600080fd5b50357fffffffff00000000000000000000000000000000000000000000000000000000166100d0565b60408051918252519081900360200190f35b61009f610141565b6040805173ffffffffffffffffffffffffffffffffffffffff9092168252519081900360200190f35b61009f610165565b604080517f00000000000000000000000000000000000000000000000000000000000000006020808301919091527fffffffff000000000000000000000000000000000000000000000000000000008416828401528251602481840301815260449092019092528051910120919050565b7f000000000000000000000000000000000000000000000000000000000000000090565b600061016f610141565b73ffffffffffffffffffffffffffffffffffffffff1663aaabadc56040518163ffffffff1660e01b815260040160206040518083038186803b1580156101b457600080fd5b505afa1580156101c8573d6000803e3d6000fd5b505050506040513d60208110156101de57600080fd5b505190509056fea2646970667358221220b30803c4b705c5346942858038958dedae105a85ae3106f095bd317ee0354e6d64736f6c63430007010033",
  "linkReferences": {},
  "deployedLinkReferences": {}
}