{
  "_format": "hh-sol-artifact-1",
  "contractName": "EOASignaturesValidatorMock",
  "sourceName": "contracts/test/EOASignaturesValidatorMock.sol",
  "abi": [
    {
      "inputs": [],
      "stateMutability": "nonpayable",
      "type": "constructor"
    },
    {
      "anonymous": false,
      "inputs": [],
      "name": "Authenticated",
      "type": "event"
    },
    {
      "inputs": [],
      "name": "MOCK_AUTHENTICATE_TYPEHASH",
      "outputs": [
        {
          "internalType": "bytes32",
          "name": "",
          "type": "bytes32"
        }
      ],
      "stateMutability": "view",
      "type": "function"
    },
    {
      "inputs": [
        {
          "internalType": "address",
          "name": "user",
          "type": "address"
        },
        {
          "internalType": "uint256",
          "name": "amount",
          "type": "uint256"
        },
        {
          "internalType": "bytes",
          "name": "signature",
          "type": "bytes"
        }
      ],
      "name": "authenticatedCall",
      "outputs": [],
      "stateMutability": "nonpayable",
      "type": "function"
    },
    {
      "inputs": [
        {
          "internalType": "address",
          "name": "user",
          "type": "address"
        },
        {
          "internalType": "uint256",
          "name": "amount",
          "type": "uint256"
        },
        {
          "internalType": "bytes",
          "name": "signature",
          "type": "bytes"
        },
        {
          "internalType": "uint256",
          "name": "deadline",
          "type": "uint256"
        }
      ],
      "name": "authenticatedCallWithDeadline",
      "outputs": [],
      "stateMutability": "nonpayable",
      "type": "function"
    },
    {
      "inputs": [],
      "name": "getDomainSeparator",
      "outputs": [
        {
          "internalType": "bytes32",
          "name": "",
          "type": "bytes32"
        }
      ],
      "stateMutability": "view",
      "type": "function"
    },
    {
      "inputs": [
        {
          "internalType": "address",
          "name": "account",
          "type": "address"
        }
      ],
      "name": "getNextNonce",
      "outputs": [
        {
          "internalType": "uint256",
          "name": "",
          "type": "uint256"
        }
      ],
      "stateMutability": "view",
      "type": "function"
    },
    {
      "inputs": [
        {
          "internalType": "address",
          "name": "user",
          "type": "address"
        }
      ],
      "name": "increaseNonce",
      "outputs": [],
      "stateMutability": "nonpayable",
      "type": "function"
    }
  ],
  "bytecode": "0x60e060405234801561001057600080fd5b50604080518082018252601d81527f454f41205369676e6174757265732056616c696461746f72204d6f636b0000006020808301918252835180850190945260018452603160f81b908401908152915190206080529051902060a0527f8b73c3c69bb8fe3d512ecc4cf759cc79239f7b179b0ffacaa9a75d522b39400f60c05260805160a05160c05161082c6100bc600039806104f852508061053a525080610519525061082c6000f3fe608060405234801561001057600080fd5b50600436106100725760003560e01c806390193b7c1161005057806390193b7c1461018e5780639a874583146101c1578063ed24911d1461028b57610072565b80630d347d5d146100775780636917a1ff146100915780638247a97c1461015b575b600080fd5b61007f610293565b60408051918252519081900360200190f35b610159600480360360608110156100a757600080fd5b73ffffffffffffffffffffffffffffffffffffffff823516916020810135918101906060810160408201356401000000008111156100e457600080fd5b8201836020820111156100f657600080fd5b8035906020019184600183028401116401000000008311171561011857600080fd5b91908080601f0160208091040260200160405190810160405280939291908181526020018383808284376000920191909152509295506102b7945050505050565b005b6101596004803603602081101561017157600080fd5b503573ffffffffffffffffffffffffffffffffffffffff16610357565b61007f600480360360208110156101a457600080fd5b503573ffffffffffffffffffffffffffffffffffffffff16610384565b610159600480360360808110156101d757600080fd5b73ffffffffffffffffffffffffffffffffffffffff8235169160208101359181019060608101604082013564010000000081111561021457600080fd5b82018360208201111561022657600080fd5b8035906020019184600183028401116401000000008311171561024857600080fd5b91908080601f01602080910402602001604051908101604052809392919081815260200183838082843760009201919091525092955050913592506103ac915050565b61007f61044e565b7f1a2773cb2c3f9af30f9fb5190fc6bc4d770020e828d3ab1d3b40ba84e97a6a4981565b60007f1a2773cb2c3f9af30f9fb5190fc6bc4d770020e828d3ab1d3b40ba84e97a6a49836102e486610384565b6040516020018084815260200183815260200182815260200193505050506040516020818303038152906040528051906020012090506103288482846101f861045d565b6040517fa707c3b3e81b3f5c0275a5cb4003a187a45758f8d5f8f503dd28792e34de5ea090600090a150505050565b73ffffffffffffffffffffffffffffffffffffffff16600090815260208190526040902080546001019055565b73ffffffffffffffffffffffffffffffffffffffff1660009081526020819052604090205490565b60007f1a2773cb2c3f9af30f9fb5190fc6bc4d770020e828d3ab1d3b40ba84e97a6a49846103d987610384565b60405160200180848152602001838152602001828152602001935050505060405160208183030381529060405280519060200120905061041e858285856101f8610490565b6040517fa707c3b3e81b3f5c0275a5cb4003a187a45758f8d5f8f503dd28792e34de5ea090600090a15050505050565b60006104586104f4565b905090565b61048a8484847fffffffffffffffffffffffffffffffffffffffffffffffffffffffffffffffff85610490565b50505050565b600061049b856105bf565b90506104b16104ab878387610626565b83610738565b6104c0428410156101b8610738565b50505073ffffffffffffffffffffffffffffffffffffffff9092166000908152602081905260409020805460010190555050565b60007f00000000000000000000000000000000000000000000000000000000000000007f00000000000000000000000000000000000000000000000000000000000000007f000000000000000000000000000000000000000000000000000000000000000061056161074a565b30604051602001808681526020018581526020018481526020018381526020018273ffffffffffffffffffffffffffffffffffffffff1681526020019550505050505060405160208183030381529060405280519060200120905090565b60006105c96104f4565b8260405160200180807f190100000000000000000000000000000000000000000000000000000000000081525060020183815260200182815260200192505050604051602081830303815290604052805190602001209050919050565b600061063882516041146101b9610738565b60008060006020850151925060408501519150606085015160001a9050600060018783868660405160008152602001604052604051808581526020018460ff1681526020018381526020018281526020019450505050506020604051602081039080840390855afa1580156106b1573d6000803e3d6000fd5b50506040517fffffffffffffffffffffffffffffffffffffffffffffffffffffffffffffffe0015191505073ffffffffffffffffffffffffffffffffffffffff81161580159061072c57508773ffffffffffffffffffffffffffffffffffffffff168173ffffffffffffffffffffffffffffffffffffffff16145b98975050505050505050565b81610746576107468161074e565b5050565b4690565b610778817f42414c000000000000000000000000000000000000000000000000000000000061077b565b50565b7f08c379a000000000000000000000000000000000000000000000000000000000600090815260206004526007602452600a808404818106603090810160081b958390069590950190829004918206850160101b01602363ffffff0060e086901c160160181b0190930160c81b60445260e882901c90606490fdfea264697066735822122007e0356fbe6fc0d6f4239f67cde8ca0eb2335849c6e4070abd6070aad833492c64736f6c63430007010033",
  "linkReferences": {},
  "deployedLinkReferences": {}
}